:080000000C942A000C9400008E
:100008000C9400000C9400000C9400000C94000068
:100018000C9400000C9400000C9400000C94000058
:100028000C9400000C9400000C9400000C94000048
:100038000C9400000C9400000C9400000C94000038
:100048000C9400000C9400000C940000F894EE2727
:10005800ECBBF1E0FBBFEBBFE5BF8DE0A2E0BB2747
:10006800ED938A95E9F780E098E0A0E6ED93019793
:10007800E9F7EFE5EDBFE8E0EEBFC0E6D2E00C94AB
:10008800CC00EFEFE7BB089544245524E5E0F1E008
:100098004E165F0644F4C198D1D0C19ACFD0F20170
:1000A80031962F01F3CF089544245524E5E2F1E079
:1000B8004E165F0644F4C198C6D0C19AC4D0F20166
:1000C80031962F01F3CF089544245524E9E4F1E053
:1000D8004E165F0644F4C198BBD0C19AB9D0F2015C
:1000E80031962F01F3CF089544245524EDE5F1E02E
:1000F8004E165F0644F4C198B0D0C19AAED0F20152
:1001080031962F01F3CF089544245524E8E8F1E00F
:100118004E165F0644F4C198A5D0C19AA3D0F20147
:1001280031962F01F3CF089544245524E8EBF1E0EC
:100138004E165F0644F4C1989AD0C19A98D0F2013D
:1001480031962F01F3CF089544245524EDEEF1E0C4
:100158004E165F0654F4C1988FD0C19A8DD0EDE643
:10016800E5BBF20131962F01F1CF089544245524BF
:10017800E0E1F2E04E165F0654F4C19882D0C19ACD
:1001880080D0E7E0E5BBF20131962F01F1CF089569
:10019800E0E0EBBBEABBE8BBE7BBE5BBE4BBE2BB2B
:1001A800EFEFE1BBE0E0E3BFE2BFECBFEFBDEEBDC8
:1001B800EDBDECBDE7BDE6BDEBBDEABDE9BDE8BD03
:1001C800E2BDE5BDE4BDE3BDE5BFE4BFE9BFEAB913
:1001D800E0E8E8B9E0E0E0BFE6B9EDB9E6BFC89904
:1001E80010C0E0E853D0E0E451D0E0E24FD0E0E1C5
:1001F8004DD0E8E04BD0E4E049D0E2E047D0E1E080
:1002080045D0C99919C03DDF3FDFEBE548D04CDF49
:10021800E6E045D059DFE6E042D066DFE6E03FD0D1
:1002280073DFE6E63CD080DFE6E639D08DDFEDE629
:1002380036D09CDFE7E033D0D2CFFFCF88E696E117
:100248000197F1F7089585EF93E10197F1F7089584
:1002580087EC91E10197F1F7089588EC90E1019717
:10026800F1F7089581EF9EE00197F1F7089580E591
:100278009DE00197F1F708958FED9BE00197F1F765
:10028800089589E19BE00197F1F70895E2BBA4EF97
:10029800B1E00CD0E0E0E2BBA4E6B0E007C0E5BB0B
:1002A800A0E9B1E003D0E0E0E5BB0895109639F08D
:1002B800A89588EB9BE00197F1F71197C9F7089586
:00000001FF
